S00C0000434152442E73726563FE
S11300000C942A000C9449000C9447000C9447006B
S11300100C9447000C9447000C9447000C94470040
S11300200C9447000C9447000C9447000C94A403D0
S11300300C9447000C9487040C9447000C948D0492
S11300400C9478010C9447000C9447000C944700DE
S11300500C94470011241FBECFE5D8E0DEBFCDBF0E
S113006011E0A0E6B0E0E0EDFAE002C005900D92E8
S1130070A231B107D9F721E0A2E1B1E001C01D929C
S1130080AF31B207E1F70E9460000C9466050C944E
S113009000001F920F920FB60F9211248F939F931B
S11300A098B381E0892788BB809112018F5F809388
S11300B012019F918F910F900FBE0F901F90189572
S11300C0CF93DF93CDB7DEB767970FB6F894DEBF53
S11300D00FBECDBF198287B3816087BB0E9498048D
S11300E080E0882319F0813021F1FBCF8BE690E08A
S11300F00E94AB04BE016F5F7F4FCE0107960E9442
S1130100B4042981AE01495F5F4F60E080E090E074
S11301100E94CF00CE0102960E94FB0425E0AE01AE
S11301204E5F5F4F64E180E090E00E94CF0081E089
S1130130D8CF86E890E00E94AB042981AE01495FE4
S11301405F4F60E080E090E00E94180163E083E08C
S11301500E94B5028130D1F7CE0107960E948D032B
S113016081E990E00E94AB0425E0AE014E5F5F4F51
S113017064E180E090E00E94180163E083E00E9463
S1130180B5028130D1F7CE0102960E948D03109200
S113019012010E943B05A5CF0E94E3020895EF924D
S11301A0FF920F931F93CF93DF93E22FF0E0E60FBC
S11301B0F11DE034F10584F5811532E0930770F503
S11301C04115510569F1D22F8A01C62F7C010E9485
S11301D0E70280E50E94FC02C701969587959695F3
S11301E087950E942A038E2D8295880F880F807C24
S11301F08C2B0E942A03C0E009C0F801EC0FF11D0A
S11302008081882329F00E942A03CF5FCD17A8F3A9
S11302100E944B0387E905C086E903C086E901C053
S113022086E9DF91CF911F910F91FF90EF90089590
S1130230CF92DF92EF92FF920F931F93CF93DF93AE
S1130240E0E4F0E0E61BF109022F10E0E017F1070B
S11302500CF440C0811522E09207F0F541155105D8
S1130260E9F17A01C62F6C010E94E70280E50E9441
S1130270FC02C60196958795969587950E942A0358
S11302808C2D8295880F880F807C8C2B0E942A03EA
S11302900E94F20280E50E941103C0E008C06701D9
S11302A0CC0ED11C0E943503F6018083CF5F8C2FC6
S11302B090E09801225031098217930784F3C70113
S11302C08C0F911DEC010E94400388830E944B0314
S11302D087E905C086E903C086E901C086E9DF91A4
S11302E0CF911F910F91FF90EF90DF90CF900895E1
S11302F01F920F920FB60F9211242F933F934F9397
S11303005F936F937F938F939F93AF93BF93EF9379
S1130310FF93E0911301F0911401309709F00995CE
S1130320FF91EF91BF91AF919F918F917F916F91C9
S11303305F914F913F912F910F900FBE0F901F909F
S11303401895813031F138F0823009F440C083309F
S113035009F45AC076C041110DC081E090E002C09A
S1130360880F991F6A95E2F780959AB389238ABB0F
S113037084E00895413009F066C081E090E002C055
S1130380880F991F6A95E2F79AB3892B8ABB84E098
S1130390089541110DC081E090E002C0880F991FBB
S11303A06A95E2F7809597B3892387BB84E0089523
S11303B0413009F04AC081E090E002C0880F991FE3
S11303C06A95E2F797B3892B87BB84E008954111BE
S11303D00DC081E090E002C0880F991F6A95E2F792
S11303E0809594B3892384BB84E00895413079F5E2
S11303F081E090E002C0880F991F6A95E2F794B3F8
S1130400892B84BB84E0089541110DC081E090E004
S113041002C0880F991F6A95E2F7809591B38923EA
S113042081BB84E008954130A1F481E090E002C0F2
S1130430880F991F6A95E2F791B3892B81BB84E0F9
S1130440089585E0089584E0089584E0089584E0A3
S1130450089584E00895813031F138F0823009F450
S113046040C0833009F45AC076C041110DC081E008
S113047090E002C0880F991F6A95E2F780959BB3BC
S113048089238BBB84E00895413009F066C081E084
S113049090E002C0880F991F6A95E2F79BB3892BFD
S11304A08BBB84E0089541110DC081E090E002C04F
S11304B0880F991F6A95E2F7809598B3892388BBC2
S11304C084E00895413009F04AC081E090E002C020
S11304D0880F991F6A95E2F798B3892B88BB84E04B
S11304E0089541110DC081E090E002C0880F991F6A
S11304F06A95E2F7809595B3892385BB84E00895D6
S1130500413079F581E090E002C0880F991F6A9527
S1130510E2F795B3892B85BB84E0089541110DC0A2
S113052081E090E002C0880F991F6A95E2F78095F8
S113053092B3892382BB84E008954130A1F481E021
S113054090E002C0880F991F6A95E2F792B3892B55
S113055082BB84E0089585E0089584E0089584E0F2
S1130560089584E0089584E00895813079F028F0B6
S11305708230A9F08330E1F024C089B390E002C056
S1130580959587956A95E2F78170089586B390E012
S113059002C0959587956A95E2F78170089583B3B3
S11305A090E002C0959587956A95E2F78170089569
S11305B080B390E002C0959587956A95E2F78170C3
S11305C0089585E0089586E480B911B8089516BEAB
S11305D084EA86BF06B607FEFDCF81B1887F8830E6
S11305E0E1F7089584EA86BF06B607FEFDCF81B120
S11305F0887F8031E1F70895CF93C82F880F83B99E
S113060084E886BF06B607FEFDCF05C00E94F2024D
S11306108C2F0E94FC0281B1887F8831B9F7CF9179
S11306200895CF93C82F880F83B983B1816083B9AC
S113063086B7846886BF06B607FEFDCF05C00E9454
S1130640F2028C2F0E94110381B1887F8034B9F7A4
S1130650CF91089583B984E886BF06B607FEFDCF1F
S113066081B1887F8832E1F7089584EC86BF06B6AD
S113067007FEFDCF81B1887F8035E1F783B108950E
S113068084E886BF06B607FEFDCF81B1887F883532
S1130690E1F783B1089584E986BF86B78031E9F331
S11306A0089541E067E081E00E94A10141E065E036
S11306B081E00E94A10141E064E081E00E94A10187
S11306C041E064E081E00E942B028DB180658DB928
S11306D08DB183608DB98DB1877F8DB98DB18B7FDD
S11306E08DB98DB18F778DB98FB78F778FBF8DB15E
S11306F08F7D8DB90895CF93C82F40E064E081E0E9
S11307000E942B02CFB9779BFECF41E064E081E0E9
S11307100E942B028FB1CF9108950F931F93CF9313
S11307208C01C0E0F801EC0FF11D80810E947B0375
S1130730CF5FF801EC0FF11D319780818111F2CF69
S1130740CF911F910F9108951F920F920FB60F92A0
S113075011248F939F93AF93BF9380911501909130
S11307601601A0911701B09118010196A11DB11DA8
S11307708093150190931601A0931701B09318016B
S1130780BF91AF919F918F910F900FBE0F901F90CB
S11307901895FC01808181110AC09181911107C0D3
S11307A083E390E090931A018093190114C081119E
S11307B00AC09181913039F487E690E090931A0150
S11307C08093190108C0803431F48FE991E090934B
S11307D01A01809319018091190189B980911A0134
S11307E080BD8281813021F48AB188608AB905C0D4
S11307F0811103C08AB1877F8AB98381813021F452
S11308008AB180618AB906C08281811103C08AB12C
S11308108F7E8AB98481863021F480B5866880BD54
S113082005C0843019F480B5866080BD8185803828
S113083021F48AB180688AB905C0811103C08AB1E4
S11308408F778AB98085803421F48AB180648AB92B
S11308500895811103C08AB18F7B8AB908955D9B85
S1130860FECF8CB908955F9BFECF8CB10895DF92C3
S1130870EF92FF920F931F93CF93DF938C01D62EA9
S1130880D42F0E943304F8018083C0E008C0CF5FF6
S11308907801EC0EF11C0E943304F7018083F80107
S11308A0EC0FF11D80818D1741F02C2F30E08D2D40
S11308B090E001972817390754F31082DF91CF9104
S11308C01F910F91FF90EF90DF900895CF92DF92E8
S11308D0EF92FF92CF93DF93EC01C12CD12C7601E0
S11308E007C00E942F048FEFC81AD80AE80AF80A32
S11308F0FE01EC0DFD1D80818111F3CF0E942F04B8
S1130900DF91CF91FF90EF90DF90CF900895E09129
S11309101B01F0911C0109950895E0911D01F091CE
S11309201E010995089580E690E00E94C903089588
S113093081B38B7F81BB85B7836085BF8FB78068A8
S11309408FBF8BB780648BBF0E9451030E949304B6
S11309500E94CC000895009711F00E946604089547
S11309604DE00E94370408950F931F93CF93DF93B4
S1130970EC018B0184E990E00E94AB0461E1CE01BB
S11309800E94B00480E0FE01E80FF11D90819053B5
S11309909A3010F48F5F0DC080EA90E00E94AB049F
S11309A084E990E00E94AB0461E1CE010E94B004AE
S11309B080E0FE01E80FF11D908191110FC0893094
S11309C068F480EA90E00E94AB0484E990E00E941D
S11309D0AB0461E1CE010E94B00480E0FE01E80FA7
S11309E0F11D90819111CFCFF8018083DF91CF91D8
S11309F01F910F910895CF93DF93EC018EEA90E05D
S1130A000E94AB0465E0CE010E94B00480E0FE01C8
S1130A10E80FF11D908190539A3010F48F5F0DC050
S1130A208AEB90E00E94AB048EEA90E00E94AB0453
S1130A3065E0CE010E94B00480E0FE01E80FF11DE4
S1130A40908191110FC0843069F08AEB90E00E948C
S1130A50AB048EEA90E00E94AB0465E0CE010E94F4
S1130A60B00480E0FE01E80FF11D90819111CFCF19
S1130A70DF91CF910895CF93DF9388EC90E00E94AB
S1130A80AB0485ED90E00E94AB048AEE90E00E94F6
S1130A90AB04D0E0C1E014C088EF90E00E94AB0446
S1130AA00E943304813039F0823041F081E091E0DA
S1130AB00E94AB0405C0D0E0C0E002C0D1E0C0E0B9
S1130AC0C111EACF8D2FDF91CF910895F894FFCF14
S1130AD0000001010600000000000050726F677200
S1130AE0616D6D696E67206D6F6465206163636518
S1130AF0737365640D0055534552204D4F44450DA5
S1130B0000686900456E7465722050414E3A2000B9
S1130B1057726F6E672050414E2121210D00456EA2
S1130B207465722050494E3A200057726F6E6720E8
S1130B3050494E2121210D0043686F6F7365206D6C
S1130B406F64650D00312D2050726F6772616D6D99
S1130B50696E67206D6F64650D00322D20557365D5
S1130B6072206D6F64650D0043686F6963653A2098
S1130B700057524F4E472043484F494345212121B6
S1050B800D0062
S9030000FC
