:100000000C946B000C9488000C9488000C9488006D
:100010000C9488000C9488000C9488000C94880040
:100020000C9488000C9488000C9488000C945C0953
:100030000C9488000C94E40A0C9488000C94EA0A4E
:100040000C944A070C9488000C9488000C94880047
:100050000C94880008000000BE922449123EABAA0E
:10006000AA2ABECDCCCC4C3E00000080BEABAAAAD2
:10007000AA3E00000000BF000000803F000000001A
:1000800000084178D3BB4387D1133D190E3CC3BD53
:100090004282AD2B3E68EC8276BED98FE1A93E4C00
:1000A00080EFFFBE01C4FF7F3F0000000000076338
:1000B0004236B79BD8A71A39685618AEBAAB558CDA
:1000C0001D3CB7CC5763BD6DEDFD753EF617723123
:1000D000BF000000803F11241FBECFE5D8E0DEBF87
:1000E000CDBF12E0A0E6B0E0E8E8F3E202C0059080
:1000F0000D92AC3EB107D9F722E0ACEEB2E001C000
:100100001D92AC3FB207E1F70E948A000C94C21125
:100110000C940000CF93DF93CDB7DEB7CC55D10957
:100120000FB6F894DEBF0FBECDBF1A8219820E94AF
:10013000F50A80E090E00E94740D27E04BE650E065
:1001400069E18EEF91E00E945A0201E010E0B12CCB
:10015000FF24F394EE24E394DD24D39406C0FF241B
:10016000F394E12C02C011E0D12CDD2049F00E9473
:10017000840D892B89F582E790E00E94070B2CC043
:100180008EE990E00E94070B83EC90E00E94070B41
:1001900023C081EE90E00E94070B6AE0CE018996B1
:1001A0000E940C0B6AEE70E0CE0189960E94B91194
:1001B000892B69F060EF70E0CE0189960E94B91139
:1001C000892B41F085EF90E00E94070B05C001E00C
:1001D00010E002C000E010E01111DBCF002321F09D
:1001E000013009F4B2C0C1CF81E0F81202C00E9410
:1001F000960B0E94F203813339F0823351F083333E
:1002000009F4ADCFF12C09C0FF24F394EE24E3945C
:1002100004C0FF24F394EE24E394813309F08EC0EC
:1002200081E00E946D0486E091E00E944C050E94EE
:10023000F2038332E1F781E00E946D0481E191E0F5
:100240000E944C0582B3806882BB81E090E00E94EE
:10025000BC0961E1CE0103960E943A0982B38F770F
:1002600082BBCE0103960E94070BBE016F5F7F4FDA
:10027000CE0103960E94A20D882309F451C08EE19D
:1002800091E00E94070B82B3806882BB65E0CE01DB
:1002900044960E943A0982B38F7782BB81E00E9424
:1002A0006D0483E291E00E944C050E941106CE018C
:1002B00044960E94AC0B882329F1CE0149960E94F6
:1002C000FB0B813051F449815A81BE01605E7F4F42
:1002D000CE0149960E94EE0C35C081E00E946D046B
:1002E0008DE291E00E944C050E9411068DE391E0A1
:1002F0000E944C0588EE93E00E94BC0981E00E94B8
:100300006D0420C081E00E946D0488E491E00E94A9
:100310004C050E94110684E591E00E944C0512C034
:1003200081E00E946D048EE591E00E944C050E94E0
:10033000110687E691E00E944C0504C0823311F457
:100340000E949E0CE11050CF10CF0E94100BC82EBF
:10035000DD24D39492C082E791E00E94070B89E8E4
:1003600091E00E94070B80EA91E00E94070B81EE6A
:1003700090E00E94070B0E94900A813309F049C067
:100380008AEA91E00E94070B49E061E1CE01C39641
:100390000E94430B182F811104C087EB91E00E944B
:1003A000070B112369F30E94840D21E1AE014D5C1E
:1003B0005F4F60E00E945A0285EC91E00E94070BBB
:1003C00042E069E0CE01835B9F4F0E94430B182FF0
:1003D000CE01835B9F4F0E94700B112369F3482F5E
:1003E000BE01635B7F4FCE018C5B9F4F0E947B0BF6
:1003F0000E94840D5C0129E0AE014C5B5F4F64E11B
:100400000E945A02C50101960E94740DBB24B39448
:1004100034C08233F1F486ED91E00E94070B47E08F
:1004200067E0CE018A5A9F4F0E94430B182F81111B
:1004300004C08BEE91E00E94070B112381F327E0AB
:10044000AE014A5A5F4F69E18EEF91E00E945A0275
:1004500014C0833311F4B1100EC0833339F4B110DA
:1004600005C08DEF91E00E94070B07C085EF90E07B
:100470000E94070B02C0C12CD12CDD2009F473CEE1
:10048000C11069CF11E0D12C70CE41E063E081E072
:100490000E947307089541E063E081E00E94FD0738
:1004A000089540E063E081E00E94FD0708950E9406
:1004B000B5080895EF92FF920F931F93CF93DF93A8
:1004C000E22FF0E0E60FF11DE034F10584F581152F
:1004D00032E0930770F54115510569F1D22F8A0179
:1004E000C62F7C010E94B90880E50E94CE08C70192
:1004F00096958795969587950E94FC088E2D8295F6
:10050000880F880F807C8C2B0E94FC08C0E009C0FB
:10051000F801EC0FF11D8081882329F00E94FC086E
:10052000CF5FCD17A8F30E941D0987E905C086E9B2
:1005300003C086E901C086E9DF91CF911F910F9139
:10054000FF90EF9008950F931F93CF93DF93603444
:1005500010F5811522E0920700F5042F162FEC010B
:100560000E94B90880E50E94CE08CE019695879535
:10057000969587950E94FC088C2F8295880F880F8E
:10058000807C812B0E94FC08802F0E94FC080E9426
:100590001D0987E903C086E901C086E9DF91CF9193
:1005A0001F910F910895DF92EF92FF920F931F9387
:1005B000CF93DF93E0E4F0E0E61BF109022F10E0B7
:1005C000E017F1070CF442C0811522E0920708F011
:1005D0003FC041155105F1F17A01D62EEC010E9480
:1005E000B90880E50E94CE08CE019695879596952C
:1005F00087950E94FC088C2F8295880F880F807C3D
:100600008D290E94FC080E94C40880E50E94E3082E
:10061000C0E009C00E940709F701EC0FF11D8083BB
:10062000882349F0CF5F8C2F90E098012250310948
:10063000821793077CF3C7018C0F911DEC010E9478
:10064000120988830E941D0987E905C086E903C055
:1006500086E901C086E9DF91CF911F910F91FF904C
:10066000EF90DF900895EF92FF921F93CF93DF9367
:10067000603458F5811522E0920748F5411551057F
:1006800041F17A01162FEC010E94B90880E50E9421
:10069000CE08CE0196958795969587950E94FC0881
:1006A0008C2F8295880F880F807C812B0E94FC08FC
:1006B0000E94C40880E50E94E3080E940709F70130
:1006C00080830E941D0987E905C086E903C086E989
:1006D00001C086E9DF91CF911F91FF90EF900895BF
:1006E0000F931F93282F30E0A8EEB3E00E949F11D4
:1006F0008B019C01000F111F221F331F000F111FC0
:10070000221F331F000F111F221F331F80E090E0B4
:10071000DC0103C00196A11DB11DB901A8016894B7
:1007200012F876956795579547951694D1F78417E3
:100730009507A607B70770F3C901B8011F910F917C
:10074000089540E062E082E00E94730740E063E0C9
:1007500082E00E94730740E064E082E00E94730739
:1007600040E062E081E00E94730741E065E082E0E2
:100770000E94730741E066E082E00E94730741E057
:1007800067E082E00E94730741E063E081E00E943D
:10079000730741E065E082E00E94FD0741E066E00A
:1007A00082E00E94FD0741E067E082E00E94FD07D1
:1007B00041E063E081E00E94FD0741E062E082E009
:1007C0000E94FD0741E063E082E00E94FD0741E0F6
:1007D00064E082E00E94FD0741E062E081E00E9467
:1007E000FD070895CF93DF93D5E070C0D83039F47A
:1007F00040E063E081E00E94FD07C2E056C040E0B7
:100800006D2F82E00E94FD07F8CFC53030F56C2FC8
:1008100082E00E948708811147C088E20E9470032D
:100820006C2F82E00E9487088823D1F341E06D2F6E
:1008300082E00E94FD078C2F90E002972D2F30E080
:1008400025503109880F991F880F991F895D9D4F89
:10085000FC01E20FF31F80813DC062E081E00E9455
:100860008708811121C084E10E94700305C041E026
:1008700063E081E00E94FD0762E081E00E9487085A
:100880008823A9F38C2F90E002972D2F30E025507C
:100890003109880F991F880F991F895D9D4FFC01B1
:1008A000E20FF31F808116C0CF5FC63008F4ADCFD2
:1008B000D83031F441E063E081E00E94FD0705C0DB
:1008C00041E06D2F82E00E94FD07DF5FD93008F420
:1008D0008DCF84E1DF91CF910895CF93C82F8BB353
:1008E0008F709C2F907F892B8BBB40E061E080E074
:1008F0000E94FD0741E063E080E00E94FD078AE07E
:1009000090E00E94BC0940E063E080E00E94FD07A7
:100910008AE090E00E94BC092BB330E1C39FC00184
:100920001124922F9F70892B8BBB41E063E080E004
:100930000E94FD078AE090E00E94BC0940E063E06D
:1009400080E00E94FD078AE090E00E94BC09CF9100
:10095000089584E690E00E94BC0941E061E080E0F7
:100960000E94730741E062E080E00E94730741E06B
:1009700063E080E00E94730741E064E080E00E9451
:10098000730741E065E080E00E94730741E066E0A4
:1009900080E00E94730741E067E080E00E947307F7
:1009A00083E00E946D048AE090E00E94BC0983E02D
:1009B0000E946D048AE090E00E94BC0983E00E94DE
:1009C0006D048AE090E00E94BC0982E00E946D0400
:1009D0008AE090E00E94BC0988E20E946D048AE0EF
:1009E00090E00E94BC0988E00E946D048AE090E0DB
:1009F0000E94BC0981E00E946D048AE090E00E94A0
:100A0000BC0986E00E946D048AE090E00E94BC0967
:100A10008CE00E946D048AE090E00E94BC09089579
:100A2000CF93C82F8BB38F709C2F907F892B8BBB5C
:100A300041E061E080E00E94FD0741E063E080E08A
:100A40000E94FD078AE090E00E94BC0940E063E05C
:100A500080E00E94FD078AE090E00E94BC092BB371
:100A600030E1C39FC0011124922F9F70892B8BBB53
:100A700041E063E080E00E94FD078AE090E00E9490
:100A8000BC0940E063E080E00E94FD078AE090E05E
:100A90000E94BC09CF9108950F931F93CF938C01AF
:100AA000C0E003C00E941005CF5FF801EC0FF11DFC
:100AB00080818111F7CFCF911F910F910895CF922F
:100AC000DF92EF92FF92CF93DF93CDB7DEB72897F7
:100AD0000FB6F894DEBF0FBECDBF0E94F50E6B01BE
:100AE0007C010E94830F0E94C60E6A838A818F5FF9
:100AF0008C836A8170E080E090E00E94F50E9B019B
:100B0000AC0160E070E080E291E40E9448109B013B
:100B1000AC01C701B6010E94540E0E94C60E698343
:100B20006A8170E080E090E00E94F50E9B01AC01CC
:100B300060E070E080E291E40E9448109B01AC010B
:100B4000C701B6010E94540E6D837E838F83988700
:100B5000898180638B838B810E9410058C818150F9
:100B60008C83CD80DE80EF80F884698170E080E046
:100B700090E00E94F70E9B01AC01C701B6010E94F4
:100B8000E70D6D837E838F8398876D817E818F8152
:100B9000988520E030E040E251E40E94DB0F0E94A3
:100BA000C60E69836D817E818F81988520E030E05B
:100BB00040E251E40E94DB0F6D837E838F83988730
:100BC0008C818111C5CF28960FB6F894DEBF0FBE79
:100BD000CDBFDF91CF91FF90EF90DF90CF90089540
:100BE0001F93CF93DF93D82F162FC0E014C0D031BE
:100BF00041F480E10E946D0485E090E00E94BC0910
:100C000009C0D43139F484E10E946D0485E090E09C
:100C10000E94BC09CF5FC11750F3DF91CF911F91A4
:100C2000089580EC0E946D04089540E060E080E04B
:100C30000E94730740E060E080E00E94FD070E9490
:100C4000F4060E94250708950F931F93CF93DF9317
:100C500000D01F92CDB7DEB719821B821A8200978F
:100C600009F456C08C01CE0101960E942C0789819F
:100C70008130A1F4CE0102960E9437072A813B8180
:100C8000A4ECB9E00E949F1120E137E240E050E07F
:100C90000E947D112093EF028DE301C08CE39091BF
:100CA000EE02911104C09091EF029093EE029091A8
:100CB000ED02911104C09091EE029093ED0290919B
:100CC000EC02911104C09091ED029093EC025091CE
:100CD000ED024091EE02242F30E0250F311D90915E
:100CE000EC02290F311D9091EF02290F311D3323A2
:100CF00014F42D5F3F4F3595279535952795F801CD
:100D000020835093EC024093ED029093EE0201C0D9
:100D10008EE30F900F900F90DF91CF911F910F9165
:100D20000895843119F08531D9F034C0673161F408
:100D300040E062E083E00E94FD0741E063E083E081
:100D40000E94FD0781E0089541E062E083E00E9497
:100D5000FD0740E063E083E00E94FD0781E0089525
:100D6000673161F440E066E083E00E94FD0741E006
:100D700067E083E00E94FD0781E0089541E066E0BE
:100D800083E00E94FD0740E067E083E00E94FD07EA
:100D900081E0089580E00895843119F0853151F0A3
:100DA0000DC00E94910641E064E083E00E94FD07CF
:100DB00081E008950E94910681E0089580E0089501
:100DC000843119F0853151F00DC00E94910640E048
:100DD00064E083E00E94FD0781E008950E9491068F
:100DE00081E0089580E0089587B1806887B987B170
:100DF000806487B987B18F7E87B987B1877F87B9CC
:100E000087B18B7F87B987B18D7F87B987B18E7F97
:100E100087B986B1806886B986B1877F86B986B181
:100E2000806286B980B78F7780BF80B78F7B80BFA5
:100E300080B78F7D80BF86B1846086B986B18260BD
:100E400086B986B1816086B9089586B1806886B911
:100E500086B1806486B90895FC01892B31F096B182
:100E60009295917090838EE208958DE20895009797
:100E700079F024B130E0FC013183208345B150E0AA
:100E8000542F4427242B352B318320838EE2089561
:100E90008DE208951F920F920FB60F9211242F9397
:100EA0003F934F935F936F937F938F939F93AF93F2
:100EB000BF93EF93FF93E091F002F091F10230972E
:100EC00009F00995FF91EF91BF91AF919F918F919B
:100ED0007F916F915F914F913F912F910F900FBE36
:100EE0000F901F901895813031F138F0823009F45D
:100EF00040C0833009F45AC076C041110DC081E072
:100F000090E002C0880F991F6A95E2F780959AB326
:100F100089238ABB84E00895413009F066C081E0EE
:100F200090E002C0880F991F6A95E2F79AB3892B67
:100F30008ABB84E0089541110DC081E090E002C0B9
:100F4000880F991F6A95E2F7809597B3892387BB2D
:100F500084E00895413009F04AC081E090E002C089
:100F6000880F991F6A95E2F797B3892B87BB84E0B6
:100F7000089541110DC081E090E002C0880F991FD3
:100F80006A95E2F7809594B3892384BB84E0089541
:100F9000413079F581E090E002C0880F991F6A9591
:100FA000E2F794B3892B84BB84E0089541110DC00E
:100FB00081E090E002C0880F991F6A95E2F7809562
:100FC00091B3892381BB84E008954130A1F481E08D
:100FD00090E002C0880F991F6A95E2F791B3892BC0
:100FE00081BB84E0089585E0089584E0089584E05D
:100FF000089584E0089584E00895813031F138F057
:10100000823009F440C0833009F45AC076C04111DF
:101010000DC081E090E002C0880F991F6A95E2F749
:1010200080959BB389238BBB84E00895413009F000
:1010300066C081E090E002C0880F991F6A95E2F7D0
:101040009BB3892B8BBB84E0089541110DC081E0D7
:1010500090E002C0880F991F6A95E2F7809598B3D7
:10106000892388BB84E00895413009F04AC081E0BB
:1010700090E002C0880F991F6A95E2F798B3892B18
:1010800088BB84E0089541110DC081E090E002C06A
:10109000880F991F6A95E2F7809595B3892385BBE0
:1010A00084E00895413079F581E090E002C0880F36
:1010B000991F6A95E2F795B3892B85BB84E0089563
:1010C00041110DC081E090E002C0880F991F6A9520
:1010D000E2F7809592B3892382BB84E00895413082
:1010E000A1F481E090E002C0880F991F6A95E2F7B1
:1010F00092B3892B82BB84E0089585E0089584E053
:10110000089584E0089584E0089584E0089581308E
:1011100079F028F08230A9F08330E1F024C089B35F
:1011200090E002C0959587956A95E2F781700895E1
:1011300086B390E002C0959587956A95E2F7817035
:10114000089583B390E002C0959587956A95E2F77C
:101150008170089580B390E002C0959587956A9557
:10116000E2F78170089585E0089586E480B911B8AA
:10117000089516BE84EA86BF06B607FEFDCF81B18C
:10118000887F8830E1F7089584EA86BF06B607FEB7
:10119000FDCF81B1887F8031E1F70895CF93C82FCB
:1011A000880F83B984E886BF06B607FEFDCF05C069
:1011B0000E94C4088C2F0E94CE0881B1887F88319C
:1011C000B9F7CF910895CF93C82F880F83B983B112
:1011D000816083B986B7846886BF06B607FEFDCFF7
:1011E00005C00E94C4088C2F0E94E30881B1887F4B
:1011F0008034B9F7CF91089583B984E886BF06B6E5
:1012000007FEFDCF81B1887F8832E1F7089584EC35
:1012100086BF06B607FEFDCF81B1887F8035E1F736
:1012200083B1089584E886BF06B607FEFDCF81B17D
:10123000887F8835E1F783B1089584E986BF86B752
:101240008031E9F3089541E066E081E00E94730790
:101250008DB180648DB98DB18F778DB98FB78F7750
:101260008FBF8DB18F7D8DB908958FB9779BFECFDC
:101270008FB10895EF92FF920F931F93CF93DF9357
:101280008C01D62FC0E07801EC0EF11C80E00E94AA
:101290003509F7018083CF5FF801EC0FF11D31971D
:1012A0008081882311F0CD1770F3DF91CF911F91CA
:1012B0000F91FF90EF9008951F920F920FB60F922B
:1012C00011248F939F93AF93BF938091F2029091DB
:1012D000F302A091F402B091F5020196A11DB11D97
:1012E0008093F2029093F302A093F402B093F5027C
:1012F000BF91AF919F918F910F900FBE0F901F9054
:10130000189589B7816089BF8FB780688FBF0895AE
:101310008130910521F483B7816083BF08958830BF
:10132000910521F483B7826083BF089580329105CF
:1013300021F483B7836083BF08958034910521F43D
:1013400083B7846083BF08958038910521F483B703
:10135000856083BF0895811521E0920721F483B74A
:10136000866083BF08958115944019F483B7876020
:1013700083BF089513BE0895CF92DF92EF92FF923C
:10138000CF93DF9300D000D000D0CDB7DEB7BC0143
:1013900080E090E00E94F50E2FE632E143E85AE348
:1013A0000E94540E6B017C0120E030E04FE753E4D3
:1013B0000E94540E0E94C60E69837A838B839C839D
:1013C00029813A814B815C81AFEFB0E00E94AE1180
:1013D0000E94F50E9B01AC01C701B6010E94E70D0A
:1013E0000E94C60E7E836D830E94810988E090E092
:1013F0000E9488094091F2025091F3026091F40238
:101400007091F50289819A81AB81BC814817590797
:101410006A077B0778F38D819E81809582BF0E9449
:10142000BA091092F2021092F3021092F402109292
:10143000F50226960FB6F894DEBF0FBECDBFDF9142
:10144000CF91FF90EF90DF90CF900895FC018081C5
:1014500081110AC09181911107C083E390E09093BC
:10146000F7028093F60214C081110AC09181913075
:1014700039F487E690E09093F7028093F60208C073
:10148000803431F48FE991E09093F7028093F60273
:101490008091F60289B98091F70280BD8281813006
:1014A00021F48AB188608AB905C0811103C08AB16C
:1014B000877F8AB98381813021F48AB180618AB9BA
:1014C00006C08281811103C08AB18F7E8AB984816E
:1014D000863021F480B5866880BD05C0843019F45B
:1014E00080B5866080BD8185803821F48AB18068AE
:1014F0008AB905C0811103C08AB18F778AB9808506
:10150000803421F48AB180648AB90895811103C0BE
:101510008AB18F7B8AB908955D9BFECF8CB90895FF
:101520005F9BFECF8CB10895DF92EF92FF920F93F5
:101530001F93CF93DF938C01D62ED42F0E94900A55
:10154000F8018083C0E008C0CF5F7801EC0EF11C89
:101550000E94900AF7018083F801EC0FF11D808151
:101560008D1741F02C2F30E08D2D90E0019728173A
:10157000390754F31082DF91CF911F910F91FF90A3
:10158000EF90DF900895CF92DF92EF92FF92CF938A
:10159000DF93EC01C12CD12C760107C00E948C0A8C
:1015A0008FEFC81AD80AE80AF80AFE01EC0DFD1DF3
:1015B00080818111F3CF0E948C0ADF91CF91FF903F
:1015C000EF90DF90CF900895E091F802F091F9024A
:1015D00009950895E091FA02F091FB0209950895AA
:1015E00080E690E00E94260A089581B3806881BB5E
:1015F0000E9457020E9415060E94A1030E94A9049E
:101600000E94F00A0E9445020E9423090895009753
:1016100011F00E94C30A08954DE00E94940A0895B3
:101620000F931F93CF93DF9300D000D01F92CDB7BD
:10163000DEB710E000E018C01F5F87E392E00E9471
:10164000070B65E0CE0101960E940C0B68E472E086
:10165000CE0101960E94B911892B29F08DE492E008
:101660000E94070B01C001E0011102C0133020F3FA
:10167000802F0F900F900F900F900F90DF91CF91D0
:101680001F910F9108950F931F93CF93DF93EC0158
:10169000062F142F0E940C0B80E0FE01E80FF11DB5
:1016A000908190539A30B0F48F5FFE01E80FF11DE6
:1016B0009081911107C0811728F4602FCE010E94FC
:1016C0000C0B80E0FE01E80FF11D90819111E5CF38
:1016D00081E001C080E0DF91CF911F910F910895CB
:1016E0009C0180E001C08F5FF901E80FF11D90813E
:1016F0009111F9CF0895DC0138E0341B20E090E02F
:1017000012C0931730F480E3FD01E90FF11D8083CF
:1017100009C0FB01E20FF11D8081FD01E90FF11D00
:1017200080832F5F9F5F993060F3089581E00E946E
:101730006D048DE592E00E944C050E9411068BE637
:1017400092E00E944C0562E084E10E94F00582E78D
:1017500092E00E944C050895CF92DF92EF92FF92A3
:101760000F931F93CF93DF937C01D12C00E0CC2407
:10177000C3942EC00E94F203182F843149F180EDEA
:10178000810F8A3040F48AE20E9410058881181384
:10179000C12C0F5F01C0C12CC1101AC00430C1F4AC
:1017A00081E00E946D0489E792E00E944C0588EE7A
:1017B00093E00E94BC0981E00E946D0483E291E005
:1017C0000E944C050E941106D39400E0CC24C394DF
:1017D000E701C00FD11D8881882319F082E08D15A3
:1017E00048F68C2DDF91CF911F910F91FF90EF90D4
:1017F000DF90CF900895CF92DF92FF920F931F93C7
:10180000CF93DF93CDB7DEB727970FB6F894DEBF3F
:101810000FBECDBF6C0181E00E946D0484E892E0B0
:101820000E944C050E94110684E992E00E944C053A
:1018300067E080E10E94F005F12C00E03CC00E94CE
:10184000F203182F8431B9F180ED810F8A3078F4DA
:10185000F601E00FF11D1083043021F461E084E112
:101860000E94F005812F0E9410050F5F24C081E0C7
:101870000E946D048CE992E00E944C050E941106C2
:101880008AEA92E00E944C0588EE93E00E94BC092F
:1018900081E00E946D0484E892E00E944C050E9461
:1018A000110684E992E00E944C0567E080E10E9405
:1018B000F005F39400E082E08F1518F0063008F48C
:1018C000BECFF601E00FF11D108282E08F1508F106
:1018D00027E0AE014F5F5F4F69E18EEF91E00E941C
:1018E000D30280E00CC0E1E0F0E0EC0FFD1FE80F58
:1018F000F11D2081921778F0291778F08F5F8630DC
:1019000070F4F601E80FF11D90819111ECCF81E0A8
:1019100007C080E005C081E003C080E001C081E035
:1019200027960FB6F894DEBF0FBECDBFDF91CF91E3
:101930001F910F91FF90DF90CF9008951F93CF9349
:10194000DF931F92CDB7DEB781E00E946D0481EB7B
:1019500092E00E944C050E94110688EB92E00E94E2
:101960004C050E94F203182F19C00E94F203182F91
:10197000CE0101960E942406698170E080E090E02B
:101980000E945F0562E080E10E94F0058981843257
:1019900018F00E944B0202C00E945102113329F735
:1019A0000F90DF91CF911F91089581E00E946D0407
:1019B00083EC92E00E944C050E94110667E184E1ED
:1019C0000E94CC0688EE93E00E94BC0967E184E1A6
:1019D0000E94E00681E00E946D0408950F931F931A
:1019E000CF93DF938C01EB01CA0129E0AB0164E1E5
:1019F0000E94D30280E003C0911107C08F5FFE01F7
:101A0000E80FF11D90819111F7CF911106C0C0E050
:101A100065C0211109C09F5F01C090E0F801E90F86
:101A2000F11D20812111F5CF49E050E0481B5109FB
:101A300027E030E0291B31094217530799F51CC0F4
:101A4000321740F12317B0F481E00E946D0484ED59
:101A500092E00E944C050E9411068FED92E00E94D8
:101A60004C0588EE93E00E94BC0981E00E946D0461
:101A7000C0E013C09F5F8F5FFE01E80FF11D208162
:101A8000222351F0F801E90FF11D30813111D8CF37
:101A9000C0E003C0C1E001C0C0E0C130F9F40E9461
:101AA000D50C1CC02417350724F40E94D50CC1E0C6
:101AB00015C081E00E946D0484ED92E00E944C0507
:101AC0000E9411068FED92E00E944C0588EE93E093
:101AD0000E94BC0981E00E946D04C0E08C2FDF9160
:101AE000CF911F910F910895CF93C92F482F63E293
:101AF0008EEF91E00E94A3024C2F64E28EEF91E002
:101B00000E94A302CF910895CF93DF9300D0CDB769
:101B1000DEB7AE014E5F5F4F63E28EEF91E00E9451
:101B20003303AE014F5F5F4F64E28EEF91E00E949E
:101B3000330380E099812A81822B0F900F90DF91EF
:101B4000CF910895AF92BF92CF92DF92EF92FF9222
:101B50000F931F93CF93DF93CDB7DEB761970FB687
:101B6000F894DEBF0FBECDBF6C015B010E94840DF7
:101B70007C0100E010E016C021E1AE014F5F5F4F35
:101B800060E0C8010E94D302B601CE0101960E9416
:101B9000B911892B29F4F5011183008381E006C076
:101BA0000F5F1F4FE016F10638F780E061960FB621
:101BB000F894DEBF0FBECDBFDF91CF911F910F9183
:101BC000FF90EF90DF90CF90BF90AF900895505866
:101BD000BB27AA270E94FF0D0C94490F0E943B0FC0
:101BE00038F00E94420F20F039F49F3F19F426F498
:101BF0000C94380F0EF4E095E7FB0C94320FE92FAC
:101C00000E945A0F58F3BA176207730784079507A3
:101C100020F079F4A6F50C947C0F0EF4E0950B2ED1
:101C2000BA2FA02D0B01B90190010C01CA01A0012E
:101C30001124FF27591B99F0593F50F4503E68F189
:101C40001A16F040A22F232F342F4427585FF3CFCA
:101C5000469537952795A795F0405395C9F77EF49B
:101C60001F16BA0B620B730B840BBAF09150A1F0E4
:101C7000FF0FBB1F661F771F881FC2F70EC0BA0F6A
:101C8000621F731F841F48F4879577956795B795F2
:101C9000F7959E3F08F0B0CF9395880F08F09927ED
:101CA000EE0F9795879508950E94680E0C94490F42
:101CB0000E94420F58F00E943B0F40F029F45F3F12
:101CC00029F00C94320F51110C947D0F0C94380FA5
:101CD0000E945A0F68F39923B1F3552391F3951B92
:101CE000550BBB27AA2762177307840738F09F5F3D
:101CF0005F4F220F331F441FAA1FA9F335D00E2EAA
:101D00003AF0E0E832D091505040E695001CCAF716
:101D10002BD0FE2F29D0660F771F881FBB1F2617D9
:101D200037074807AB07B0E809F0BB0B802DBF01B0
:101D3000FF2793585F4F3AF09E3F510578F00C947F
:101D4000320F0C947D0F5F3FE4F3983ED4F38695F9
:101D500077956795B795F7959F5FC9F7880F911DA0
:101D60009695879597F90895E1E0660F771F881F8C
:101D7000BB1F621773078407BA0720F0621B730B3F
:101D8000840BBA0BEE1F88F7E09508950E94620F4E
:101D900088F09F5798F0B92F9927B751B0F0E1F02C
:101DA000660F771F881F991F1AF0BA95C9F714C0DC
:101DB000B13091F00E947C0FB1E008950C947C0F3B
:101DC000672F782F8827B85F39F0B93FCCF3869515
:101DD00077956795B395D9F73EF490958095709572
:101DE00061957F4F8F4F9F4F0895E89409C097FBEF
:101DF0003EF490958095709561957F4F8F4F9F4FE2
:101E00009923A9F0F92F96E9BB279395F695879525
:101E100077956795B795F111F8CFFAF4BB0F11F4E8
:101E200060FF1BC06F5F7F4F8F4F9F4F16C088238F
:101E300011F096E911C0772321F09EE8872F762FC5
:101E400005C0662371F096E8862F70E060E02AF006
:101E50009A95660F771F881FDAF7880F96958795F2
:101E600097F9089597F99F6780E870E060E008951A
:101E70009FEF80EC089500240A94161617061806A2
:101E80000906089500240A9412161306140605067E
:101E90000895092E0394000C11F4882352F0BB0F0F
:101EA00040F4BF2B11F460FF04C06F5F7F4F8F4F72
:101EB0009F4F089557FD9058440F551F59F05F3FAD
:101EC00071F04795880F97FB991F61F09F3F79F05C
:101ED00087950895121613061406551FF2CF4695DE
:101EE000F1DF08C0161617061806991FF1CF869560
:101EF0007105610508940895E894BB276627772744
:101F0000CB0197F908950E94930F29ED3BE54EED23
:101F10005EE30C94DB0F16F00C94D2100C94380F87
:101F200068940C94320F0E94620FA8F39923C1F3B6
:101F3000AEF3DF93CF931F930F93FF92C92FDD274B
:101F400088232AF02197660F771F881FDAF720E091
:101F500030E040E85FEB9FE3883920F0803E38F0C6
:101F600021968F770E94E80DE4E5F0E004C00E941E
:101F7000E80DE1E8F0E00E94E0108B01BE01EC0109
:101F8000FB2E6F5771097595771F880B990B0E946F
:101F9000F70E28E132E741E35FE30E94EE0FAF2D39
:101FA0009801AE01FF900F911F91CF91DF910E9498
:101FB000FF0D0C94490F0E94EE0F0C94490F0E94E4
:101FC0003B0F38F00E94420F20F0952311F00C9443
:101FD000320F0C94380F11240C947D0F0E945A0F6D
:101FE00070F3959FC1F3950F50E0551F629FF0016C
:101FF000729FBB27F00DB11D639FAA27F00DB11D85
:10200000AA1F649F6627B00DA11D661F829F22270D
:10201000B00DA11D621F739FB00DA11D621F839F94
:10202000A00D611D221F749F3327A00D611D231F6A
:10203000849F600D211D822F762F6A2F11249F57B8
:1020400050409AF0F1F088234AF0EE0FFF1FBB1FBB
:10205000661F771F881F91505040A9F79E3F51057A
:1020600080F00C94320F0C947D0F5F3FE4F3983EA8
:10207000D4F3869577956795B795F795E7959F5F24
:10208000C1F7FE2B880F911D9695879597F90895B6
:10209000FA01EE0FFF1F309621053105A1F1611500
:1020A000710561F48038BFE39B0749F1689490386B
:1020B000810561F08038BFEF9B0741F099234AF515
:1020C000FF3FE1053105210519F1E8940894E795F2
:1020D000D901AA2329F4AB2FBE2FF85FD0F310C08B
:1020E000FF5F70F4A695E0F7F73950F019F0FF3A6A
:1020F00038F49F779F930DD00F9007FC9058089568
:1021000046F00C94380F60E070E080E89FE308959B
:102110004FE79F775F934F933F932F930E94930FC7
:102120002F913F914F915F910E94DB0F0C94A01073
:1021300029F416F00C94320F0C947C0F0C94380F89
:102140000E94620FA8F39638A0F707F80F92E89460
:102150002BE33AEA48EB5FE70E94F10F0F920F92F0
:102160000F924DB75EB70F920E944911EEEAF0E070
:102170000E94E0104F915F91EF91FF91E595EE1F66
:10218000FF1F49F0FE57E0684427EE0F441FFA9501
:10219000E1F74195550B0E9413110F9007FE0C9427
:1021A000071108959F3F31F0915020F4879577955E
:1021B0006795B795880F911D9695879597F908951E
:1021C000DF93CF931F930F93FF92EF92DF927B01E8
:1021D0008C01689406C0DA2EEF010E94EE0FFE011A
:1021E000E894A5912591359145915591A6F3EF017C
:1021F0000E94FF0DFE019701A801DA9469F7DF90B4
:10220000EF90FF900F911F91CF91DF9108959B0167
:10221000AC0160E070E080E89FE30C94540E0C94F5
:10222000320F0C94D2100E94620FD8F39923C9F395
:10223000940F511DA3F39150504094F059F088230E
:1022400032F0660F771F881F91505040C1F79E3FB4
:1022500051052CF7880F911D9695879597F908954C
:102260005F3FACF0983E9CF0BB27869577956795CD
:10227000B79508F4B1609395C1F7BB0F58F711F407
:1022800060FFE8CF6F5F7F4F8F4F9F4FE3CF0C947E
:102290007D0FFA01DC01AA0FBB1F9B01AC01BF57E8
:1022A00028F4222733274427507820C0B75190F4D0
:1022B000AB2F0024469537952795011CA395D2F3A3
:1022C000002071F0220F331F441FB395DAF30ED0B4
:1022D0000C94E70D61307105A0E88A07B94630F427
:1022E0009B01AC016627772788279078309621F0EC
:1022F00020833183428353830895A1E21A2EAA1BBF
:10230000BB1BFD010DC0AA1FBB1FEE1FFF1FA217A5
:10231000B307E407F50720F0A21BB30BE40BF50BA2
:10232000661F771F881F991F1A9469F7609570952B
:10233000809590959B01AC01BD01CF010895A29FAE
:10234000B001B39FC001A39F700D811D1124911D89
:10235000B29F700D811D1124911D08950E949F113F
:10236000A59F900DB49F900DA49F800D911D1124E9
:102370000895FB01DC018D91019080190110D9F3C2
:08238000990B0895F894FFCFBA
:102388000000010106000000000000353030303048
:10239800300053657276657220697320456D7074DC
:1023A800792E20596F7520617265206E6F772069CC
:1023B8006E2061646D696E206D6F64650D000D316E
:1023C8002D20466F722070726F6772616D6D696E35
:1023D80067206D6F646520747970652041444D49AC
:1023E8004E0D000D322D20466F72207573657220D8
:1023F8006D6F646520747970652055534552200DC2
:102408000043686F6963653A200041444D494E00B6
:10241800555345520057524F4E472043484F494362
:10242800452121210D00456E746572204361726457
:102438000050726F63657373696E672E2E000D48C6
:10244800690D00456E7465722070696E0062616C7A
:10245800616E636520656E746572656400696E639C
:102468006F7272656374200050494E20456E746522
:10247800726564004E4F542056414C4944006361D4
:102488007264206E6F74007265636F676E697A6537
:1024980064000D31202D20456E746572206E6577BD
:1024A800207265636F72640D0032202D20456E74B2
:1024B8006572206D61782062616C616E63650D00E4
:1024C80033202D20457869740D000D456E746572B2
:1024D8002050414E3A200057524F4E472050414E0F
:1024E8002121210D000D456E7465722062616C61B9
:1024F8006E63653A20000D456E746572204D6178F3
:102508002042616C616E63653A200057524F4E4716
:102518002042414C414E43452121210D000D506C74
:102528006561736520656E746572206174206C65E1
:10253800617374206F6E65207265636F72642074B6
:102548006F2065786974003132334134353642374B
:102558003839432A302344456E74657220506173BC
:1025680073776F72643A2000313233340057524F18
:102578004E472050415353574F52440D00312D4977
:102588006E73657274204361726400322D54656DF8
:102598007000332D457869740057726F6E6720702C
:1025A800696E200077616E7465642042616C616EAB
:1025B80063653A00585858582E585800456E746547
:1025C8007220612076616C6964006E756D62657257
:1025D80000312D455849540054656D70206E6F7751
:1025E8003A2000506C6561736520776169742063D7
:1025F800617368004E6F7420456E6F75676800419F
:0C26080063636F756E742042616C2E00DD
:00000001FF
